:020000040800F2
:1000000000100020D9350008A9330008AB330008E0
:1000100000000000000000000000000000000000E0
:10002000000000000000000000000000AD330008E8
:100030000000000000000000AF330008B1330008EA
:10004000293600080000000029360008293600087B
:1000500029360008B9330008C333000829360008E0
:1000600000000000D53300082936000829360008B2
:10007000293600082936000829360008000000004B
:1000800029360008000000000000000029360008A2
:1000900000000000E5330008F533000829360008A9
:1000A0000000000029360008000000002936000882
:1000B0000000000000000000000000000000000040
:1000C00010B5064C2378002B07D1054B002B02D02E
:1000D000044800E000BF0123237010BD0800002089
:1000E0000000000098360008044B10B5002B03D028
:1000F0000349044800E000BF10BDC04600000000F6
:100100000C00002098360008002243088B4274D36C
:1001100003098B425FD3030A8B4244D3030B8B4208
:1001200028D3030C8B420DD3FF22090212BA030C11
:100130008B4202D31212090265D0030B8B4219D3F2
:1001400000E0090AC30B8B4201D3CB03C01A524112
:10015000830B8B4201D38B03C01A5241430B8B425A
:1001600001D34B03C01A5241030B8B4201D30B0343
:10017000C01A5241C30A8B4201D3CB02C01A52416A
:10018000830A8B4201D38B02C01A5241430A8B422D
:1001900001D34B02C01A5241030A8B4201D30B0216
:1001A000C01A5241CDD2C3098B4201D3CB01C01A30
:1001B000524183098B4201D38B01C01A524143093A
:1001C0008B4201D34B01C01A524103098B4201D328
:1001D0000B01C01A5241C3088B4201D3CB00C01A95
:1001E000524183088B4201D38B00C01A524143080D
:1001F0008B4201D34B00C01A5241411A00D2014632
:10020000524110467047FFE701B5002000F006F8A4
:1002100002BDC0460029F7D076E770477047C04658
:1002200010B5040001F060FAFA218900FFF76CFFB5
:1002300000F0B4FA012000222100404200F074FADC
:10024000002010BD1023064A10B5116800200B4392
:100250001360FFF7E5FF03F08FF8002010BDC046E4
:1002600000200240024A1368013313607047C04601
:1002700030000020014B18687047C0463000002055
:10028000002373B503210193036804009A680A40B0
:10029000012A07D11968114201D0002076BDDA6821
:1002A0001204FAD49968194A114208D01023012087
:1002B000626C13436364A36C0343A364EEE70122FF
:1002C00099680A439A60124B12491868FFF71CFF9D
:1002D0000190019B002B15D1FFF7CCFF01250600F3
:1002E00023681B682B42D8D1FFF7C4FF801B02286C
:1002F000F6D91023626C012013436364A36C2B4373
:10030000A364CBE7019B013B0193E2E71700008068
:100310000400002040420F00F8B504000120002C2A
:1003200072D0636C002B06D122004032A3642000FF
:10033000137001F027FF636CDB0600D579E004221F
:1003400023689868104000D073E0626C4249114005
:1003500002220A43032162649A680A40012A00D0FB
:100360006DE01968114202D1DA68120467D5DA68C3
:100370003A49256A0A40DA60A2696F039103E2698B
:10038000D2031143626B013A561EB2411603E26872
:10039000114322690F43022A00D10420226B616AB3
:1003A00052003A4332430243012904D1002D2CD19B
:1003B000802149020A43C220A16AFF30814202D053
:1003C000E06A01430A438020D96840051143D9609F
:1003D000A16B814202D0481E062807D8072558691C
:1003E0002940A8435861586901435961DB681C4999
:1003F0000B409A4211D100200322A064636C934306
:100400001A00012313436364F8BD2020656C284360
:100410006064A06C0143A164CDE71222636C0120EB
:1004200093431A00102313436364A36C0343A36430
:10043000EAE71023626C012013436364E4E71821A8
:10044000DA688A43A1680A43DA6019696268890038
:100450008908114319618AE7FDFEFFFF1902FEFFBB
:10046000E7FF3F83F7B5036804009B680F00019224
:1004700002205B0730D4260040363378012B2BD086
:1004800001233370E369012B27D1636C164A0025E1
:100490001A4080235B0013436364E06B134BA56435
:1004A00035708362124B2168C362124B03631C23B5
:1004B0000B604A680C3B13434B600123CA6813432B
:1004C000CB603A004031019B00F0B8F904232800CA
:1004D000226891680B439360FEBD2000FFF7D0FEB9
:1004E0000028F9D1D1E7C046FEF0FFFFFD04000867
:1004F0006F0500087B050008704700005022436A22
:1005000010B5596C11422AD1596CB132FF320A43ED
:10051000C0215A641A680901D068084212D1196AC8
:1005200000290FD1116809070CD5916849070DD42E
:100530000C205168814351605A6C0B4911400122D3
:100540000A435A641800FFF7D7FF10BD2022596CE8
:100550000A435A640122996C0A439A64F2E7DB6BFE
:100560001B6B9847F1E7C046FEFEFFFF704710B5D2
:10057000406AFFF7FBFF10BD70474023406A10B58B
:10058000426C134343640423826C13438364FFF778
:10059000F3FF10BDF7B50023040001934034237826
:1005A00005000220012B2BD001232A68AE6B906836
:1005B0002370400752D42C484F680D6887423BD0C7
:1005C000AB4018008023976A5B05384390629E42D7
:1005D0000FD0013E062E0CD98B68072150690840C8
:1005E000834206D050690B408843506150690343F1
:1005F00053612B00103B012B03D9002000232370F3
:10060000FEBD1A4B80221968102D13D0D2030A4365
:100610001A60102DF1D1164B16491868FFF774FDBA
:100620000A2358430190019B002BE6D0019B013B1C
:100630000193F8E71204EAE7AB40916A99432B0073
:10064000103B9162012BD8D8084B1A68102D03D0AB
:1006500009490A401A60D0E70849FAE72022696C84
:1006600018000A436A64C9E7011000000827014026
:100670000400002040420F00FFFFBFFFFFFF7FFF8D
:10068000F8B506004036337804000220012B42D032
:1006900001230321337023689A680A40012A05D197
:1006A0001968114238D1DA68120435D4626C1D49D8
:1006B000114002220A4303216264DD68DA688A433A
:1006C000DA608022996812060A439A60FFF7D2FD29
:1006D000070023689A68002A0EDB0322D9681540B8
:1006E0000D43DD60636C002093431A000123134324
:1006F0006364002333700EE0FFF7BCFDC01B0228CB
:10070000E7D91222636C012093431A00102313438C
:10071000636400233370F8BD2023626C012013430F
:100720006364E6E7FDFEFFFF70B58901002814DA77
:100730000F23C0B20340083B114A9B089B009B1843
:10074000032210409040FC3215001140854081404A
:10075000DC69AC432143D96170BD0325830828407F
:10076000A840FC352E00074A9B009B18C0228640FB
:100770002940814092009C58B44321439950EBE7B3
:1007800000ED00E000E100E01F2318401E3B834025
:10079000014A13607047C04600E100E0094A431E69
:1007A000012093420DD8C021074A08485360036ACC
:1007B00009061B021B0A0B430362002007239060FB
:1007C00013607047FFFFFF0010E000E000ED00E065
:1007D00070B504000120002C28D002232068A51C3D
:1007E000EB770268124BA1681A4063680B43E1681B
:1007F0000B4321690B4361690B43A1690B43E16919
:100800000B43134303600B4B1421C018FFF77CFC10
:10081000094B80002064E36300200123A062E062B2
:1008200020636063A063E418EB77E07770BDC04697
:100830000FC0FFFFF8FFFDBF00000240F0B5461CEF
:10084000F57F0224012D26D00125F5770519AC4648
:10085000ED7F0027EDB2012D29D16646F4770468BB
:1008600087632668076CAE43BD402660C66B756023
:10087000636043680568102B0FD1A260E160C36A12
:100880002268002B0CD00E23134323600123002485
:100890002A6813432B602000F0BDA160E260EEE700
:1008A0000A2313430422236023689343EDE7F77779
:1008B000F1E7F8B504273E00016CC26B8E40156865
:1008C00003681C682E420DD03C420BD01968890683
:1008D00002D41968B9431960C36A5660002B19D055
:1008E000984717E002273E008E402E4213D03C422C
:1008F00011D01968890606D40A241968A143196021
:100900000121C319D97756600022431CDA77836A24
:100910009342E5D1F8BD082637008F403D42F9D01B
:100920003442F7D00E251C68AC431C6001231C0028
:100930008C405460821C8363D3770022C318DA771B
:10094000036BE5E7F0B50B6887B0029300230191D4
:10095000029ADA4001D107B0F0BD01229A40039219
:100960000399029A0A40009200D18CE0019A10216A
:10097000526816008E43022E0ED107251D40AD0091
:100980000139A940DC08A4000419276A8F430199A2
:100990000969A9400F43276203245F00BC40E44378
:1009A0000568013E2540AC4603251540BD40614623
:1009B0000D430560012E0FD801998668CD68264049
:1009C000BD40354385604668039915098E43012172
:1009D0000D409D4035434560C56801992C408D68A8
:1009E0008021BD4049052C43C4600A424BD00121FF
:1009F000264C0326A5691E400D43A561A4699D08E8
:100A00000C400594059C0F242149AD00B6006D18DB
:100A1000B4409021AF68C905A743002488420CD098
:100A20001C490134884208D01B490134884204D053
:100A30001A490334884200D1023CB44000993C4337
:100A40000E00AC60164CCD4327683E43D10301D461
:100A50003E002E4026606768009E3E43910301D40D
:100A60003E002E406660A768009E3E43D10201D43E
:100A70003E002E40A660E668009F3743920201D4F4
:100A80002E403700E760013362E7C04600100240A5
:100A9000000001400004004800080048000C004825
:100AA0000004014000690840411E8841C0B27047FF
:100AB000002A01D0816170478162FCE7044B10B5C8
:100AC0005A69104202D0586102F0DEFB10BDC046E8
:100AD0000004014003689A69920701D500229A62D6
:100AE00001229969114202D199690A439A617047BA
:100AF00030B504680648656889052840039D890D5E
:100B00002B43194312040A430243626030BDC046BE
:100B1000009800FCF8B504000E0017001D002268C4
:100B2000936933409B1B59424B41BB4201D000208B
:100B30000EE06B1CF4D0002D0BD12300202241339A
:100B40001A702200002303204232403413702370B5
:100B5000F8BDFFF78FFB069BC01A8542DFD2ECE79A
:100B6000F8B503680400986910230E0017001840B8
:100B70002025002815D1F8BD721C13D0002E0BD1F2
:100B80002300202241331A702200002342324034D5
:100B9000137003202370EEE7FFF76CFBC01B864247
:100BA000EED323689A692A42E6D010222000DA6147
:100BB000DD61FFF78FFF22680849536801200B4071
:100BC0005360042363642300220041331D7000231B
:100BD0004232403413702370CDE7C04600E800FE77
:100BE000F8B504000D001600022723689B693B42FC
:100BF00001D0002018E0320029002000FFF7B0FFEC
:100C0000002818D16B1CF0D0002D0ED12022636C6F
:100C1000032013436364230041331A70220000232E
:100C20004232403413702370F8BDFFF723FB801B62
:100C30008542DAD2EAE70120F6E773B515001E0017
:100C4000DAB280239B010093802304005B04FFF74A
:100C50004FFF079A06992000FFF7C2FF002805D032
:100C6000636C0120042B00D0032076BD2368012E85
:100C70000CD1EDB29D62079B002200938021069B60
:100C80002000FFF747FF0028EED1EEE72A0A9A621C
:100C90000699079A2000FFF7A3FF0028E0D12368F8
:100CA000E7E773B515001E00DAB2802304009B014C
:100CB00000930023FFF71CFF079A06992000FFF717
:100CC0008FFF002805D0636C0120042B00D0032087
:100CD00076BD2368012E0CD1EDB29D62079B0022E8
:100CE00000934021069B2000FFF714FF0028EED15F
:100CF000EEE72A0A9A620699079A2000FFF770FF2A
:100D00000028E0D12368E7E7F8B504000D001600DD
:100D1000202723689B693B4201D0002016E0320067
:100D200029002000FFF71CFF002816D1002D0ED14E
:100D30002022636C032013436364230041331A7041
:100D4000220000234232403413702370F8BDFFF7B5
:100D500091FA801B8542DCD2EAE70120F6E7000029
:100D600070B504000120002C3FD0250041352B78C0
:100D7000DBB2002B05D1220040321370200001F0BD
:100D800003FB242301212B702368E0681A68A668FE
:100D90008A431A6061681A4A0A401A619968194AB6
:100DA00011409960012821D18021090231439960C5
:100DB0005868154901435960D96800200A40DA6033
:100DC000616922690A43A16909020A43DA60216A5A
:100DD000E2690A431A60012219680A431A60202353
:100DE00060642B7020634234207070BD842109023E
:100DF000314399600228DBD1802109015960D7E78E
:100E0000FFFFFFF0FF7FFFFF00800002F0B589B019
:100E100007930EAB069204CB04001B880392049345
:100E20000300413305931B780D000220202B02D1D3
:100E3000002A02D1012009B0F0BD049B002BF9D09B
:100E4000270040373B78012BF5D001233B70FFF79B
:100E500011FA80210290009019230122090220003A
:100E6000FFF758FE061E1FD12123059A2900137093
:100E70002300423305934023059A1370039B60645B
:100E800063626B461B8A60636385029B069A0193CB
:100E9000109B20000093079BFFF7CFFE002805D092
:100EA000636C3E70042BC5D00320C4E7638DFF2B19
:100EB00014D9FF22802322855B04009029002000A2
:100EC0008026FFF715FEFF27B604029A109920002E
:100ED000FFF786FE002809D0636CE3E78023628D6C
:100EE0009B0492B22285D2B20090E7E7636A22683F
:100EF000591C61621B789362638D228D013B013A1C
:100F00009BB292B263852285002A17D1638D002B94
:100F100014D0029B802100932000109BFFF7FAFD64
:100F20000028C1D1638DFF2B21D98023FF22278583
:100F30005B04009029002000FFF7DAFD638D002B91
:100F4000C3D1029A10992000FFF7DEFE0028C3D11A
:100F500020212368094DD9615A682A405A6023002C
:100F600041331970059B40341870207063E7628D1F
:100F7000330092B22285D2B20090DBE700E800FE97
:100F8000F0B589B007930EAB069204CB04001B8822
:100F9000039204930300413305931B780D00022054
:100FA000202B02D1002A02D1012009B0F0BD049B00
:100FB000002BF9D0270040373B78012BF5D00123D7
:100FC0003B70FFF757F9802102900090192301220E
:100FD00009022000FFF79EFD061E1FD12223059A5D
:100FE000290013702300423305934023059A1370A0
:100FF000039B606463626B461B8A60636385029B2C
:10100000069A0193109B20000093079BFFF749FE6F
:10101000002805D0636C3E70042BC5D00320C4E7C4
:101020009023628D9B01FF2A49D9FF2222850093DC
:1010300080235B04290020008026FFF759FDFF274D
:10104000B604029B002200930421109B2000FFF7AE
:1010500061FD0028E2D1636A5A1C62622268526A0A
:101060001A70228D638D013A013B92B29BB22285A8
:101070006385002A17D1638D002B14D0029B802139
:1010800000932000109BFFF745FD0028C6D1638D1B
:10109000FF2B1CD98023FF2227855B0400902900A9
:1010A0002000FFF725FD638D002BCAD1029A10990D
:1010B0002000FFF729FE002810D0636CACE7628D9A
:1010C00092B2228500938023D2B29B04B2E7628D54
:1010D000330092B22285D2B20090E0E7202123684B
:1010E000064DD9615A682A405A602300413319706D
:1010F000059B40341870207057E7C04600E800FE9A
:10110000F0B50400413422780300D2B20220202A34
:1011100018D11D0040352E78012E13D01B682230C7
:1011200020701E68233886431E601E68064F3E40AE
:101130001E601E683143196019680843186000205A
:1011400022702870F0BDC046FFEFFFFFF0B505002C
:1011500041352A780300D2B20220202A17D11C0080
:1011600040342678012E12D01B68223028701E6869
:10117000233886431E601E68054F09023E403143F6
:10118000196019680843186000202A702070F0BDAB
:10119000FFF0FFFFF0B5036885B00500DB072FD433
:1011A0002B689B0700D581E02B681B0700D5BCE0AE
:1011B0002B685B0700D5DFE02B68DB061AD56A6970
:1011C000B54C0423012A00D04BE1616B02260B438E
:1011D0006363636B1A436263FFF74CF80700636B4A
:1011E000334200D136E1F821626BAB698A43DB0000
:1011F00013436363296A002900D059E1002013E0FA
:101200000C21A54C62680A40042A06D063680B4092
:10121000082B0BD16368DB0308D523689B03BFD57C
:101220006B68002BBCD1012005B0F0BD6B68012BB1
:1012300013D1802322685B0213432360FFF71AF85F
:1012400080260700B60223683342A9D1FFF712F8BF
:10125000C01B6428F7D90320E6E7002B16D12368CA
:101260008E4A80261340236023688D4AB6021340BD
:101270002360FEF7FFFF07002368334200D18FE7AA
:10128000FEF7F8FFC01B6428F6D9E4E7052B05D16B
:1012900080232268DB0213432360CAE723687F4A66
:1012A0001340236023687E4A1340C6E70C227A4C21
:1012B0006368134206D063681340082B10D163683B
:1012C000DB030DD423689B0702D5EB68012BAAD161
:1012D000F82122682B698A43DB001343236063E70C
:1012E000EA680123002A0FD02268022613432360F4
:1012F000FEF7C0FF070023683342E9D1FEF7BAFFCB
:10130000C01B0228F7D9A6E7226802269A4322606A
:10131000FEF7B0FF07002368334200D144E7FEF731
:10132000A9FFC01B0228F6D995E7EA6901235A4CA8
:10133000002A10D0626A022613436362FEF79AFF06
:101340000700636A334200D032E7FEF793FFC01B09
:101350000228F6D97FE7626A02269A436262FEF7A4
:1013600089FF0700636A334200D121E7FEF782FF5D
:10137000C01B0228F6D96EE780220021464C520598
:10138000E3690091134208D1E3691343E361E36920
:1013900013400393039B012300938027414E7F005A
:1013A00033683B4206D0AB68012B13D1226A13434A
:1013B000236230E033683B433360FEF75BFF01900C
:1013C00033683B42EFD1FEF755FF019BC01A6428FA
:1013D000F6D940E70122002B14D1236A0227934358
:1013E0002362236A033293432362FEF743FF06001E
:1013F000236A3B4225D0FEF73DFF2B4B801B9842D2
:10140000F6D928E7052B0BD1216A013B0B43236258
:10141000236A1A432262FEF72DFF022706000DE021
:10142000236A934304222362236A9343C0E7FEF7AF
:1014300021FF1D4B801B984200D90CE7236A3B42D9
:10144000F5D0009B012B00D0B6E6E369174A1340A4
:10145000E361B1E6FEF70EFFC01B022800D8BEE62E
:10146000F9E6053203D1626B9A436263BBE6626BB5
:101470000226134301226363636B93436363FEF7A6
:10148000F9FE0700636B334200D1B3E6FEF7F2FECC
:10149000C01B0228F6D9DEE600100240FFFFFEFF67
:1014A000FFFFFBFF0070004088130000FFFFFFEF0D
:1014B0000C22264C012063681340082B00D1B3E6B0
:1014C0002368234A1340236002292FD1FEF7D2FE5E
:1014D00080260700B6042368334221D10F22E36A35
:1014E0009343EA6A1343E362696AAB6A62680B4337
:1014F000184980250A4013436360802322685B04F7
:1015000013432360FEF7B6FE0600AD0423682B42AA
:1015100000D073E6FEF7AEFE801B0228F6D99AE6ED
:10152000FEF7A8FEC01B0228D5D994E6FEF7A2FE5E
:1015300080250600AD0423682B4200D15EE6FEF74D
:1015400099FE801B0228F6D985E6C04600100240AD
:10155000FFFFFFFEFFFFC2FF70B5144C88B01022E2
:101560002100684602F086F8210004AD10221031F7
:10157000280002F07FF80C220D4E73681A40082AEA
:1015800011D10F206A46990C0140545CF26A024066
:10159000A95CDB0305D50748FEF7B6FD604308B03C
:1015A00070BD0548FAE70348F9E7C046B0360008C1
:1015B0000010024000127A0000093D00F7B5012238
:1015C000434C060023680F0013408B421CD3326843
:1015D000930723D4D30729D4012322681A409742C2
:1015E00067D333683B4C5B076AD4FFF7B5FF63688A
:1015F000394A1B061B0FD35CD840384B18600020BB
:10160000FEF70EFE002008E0236893430B4323609F
:10161000236813409942DAD00120FEBDF0202D4905
:101620004B688343B06803434B60D3E7294D72682E
:101630002B68012A1AD19B03EED503216B688B43DB
:1016400013436B60FEF716FE73680190012B15D1F2
:101650000C226B681340042BBED0FEF70BFE019BDF
:10166000C01A1F4B9842F3D90320D6E7022A02D1B1
:101670009B01E2D4D0E79B07DFD4CDE7022B12D049
:101680000C226B681342A7D0FEF7F4FD019BC01A31
:10169000134B9842F4D9E7E7FEF7ECFD019BC01A23
:1016A0000F4B9842E0D80C226B681340082BF3D103
:1016B00092E722689A43226022681A42ACD190E7EE
:1016C0006368084A1340F268134363608DE7C046BD
:1016D00000200240001002402038000804000020D2
:1016E00088130000FFF8FFFF014B18687047C046E1
:1016F00004000020F0B5036885B00500DB0328D5A1
:1017000080220021374C5205E3690091134208D131
:10171000E3691343E361E36913400393039B0123EC
:1017200000938027304E7F0033683B4226D0C02292
:10173000236A920013402D4E32D1236A1E406B68FB
:101740001E43009B2662012B03D1E369284A134004
:10175000E3612A68D30706D5032022490B6B834334
:10176000A86803430B630020930617D510211D4A78
:10177000136B8B43E9680B4313630FE033683B4300
:101780003360FEF777FD019033683B42CFD1FEF71F
:1017900071FD019BC01A6428F6D9032005B0F0BD85
:1017A00069680A409342C8D08023226A206A1100E7
:1017B0005B0203432362236A0E48314003402362E5
:1017C0002162D307B9D5FEF755FD07000222236A2F
:1017D0001342B2D1FEF74EFD074BC01B9842F5D91C
:1017E000DBE7C0460010024000700040FFFCFFFF36
:1017F000FFFFFFEFFFFFFEFF881300000200022340
:10180000012100683D32137003680B430360002020
:101810001170704701220368D96800201143D96014
:1018200019680A431A60704701210368DA688A431D
:10183000DA60186A054A104206D1186A044A104252
:1018400002D11A688A431A60002070471111000003
:1018500044040000704770477047704702220368D5
:1018600010B51969040011420ED0D96811420BD08D
:10187000053A1A619B69043202779B0700D179E02F
:10188000FFF7E9FF00232377042223681969114237
:1018900010D0D96811420DD0093A1A610732227767
:1018A0009A69C0239B0020001A4269D0FFF7D3FF3A
:1018B0000023237708222368196911420ED0D968C2
:1018C00011420BD0113A1A61DB690D3222772000E8
:1018D0009B075BD0FFF7BFFF00232377102223680D
:1018E0001969114210D0D96811420DD0213A1A61FC
:1018F00019322277DA69C0239B0020001A424BD0AC
:10190000FFF7A9FF002323770122236819691142F9
:1019100007D0D968114204D0033A1A61200001F0BF
:10192000EFFC802223681969114208D0D96811425E
:1019300005D0023AFF3A1A61200000F071F9402206
:1019400023681969114207D0D968114204D0813A3D
:101950001A612000FFF781FF2022236819691142D4
:1019600007D0D968114204D0413A1A61200000F032
:1019700056F910BDFFF76EFF2000FFF76DFF81E7FE
:10198000FFF768FF2000FFF767FF91E7FFF762FFAF
:101990002000FFF761FF9FE7FFF75CFF2000FFF7E4
:1019A0005BFFAFE7194A10B50368904202D0184CAC
:1019B000A04208D17024A3434C68234390420BD02B
:1019C000134CA04208D0134CA04205D0124CA042A8
:1019D00002D0124CA04203D1114C2340CC682343C7
:1019E0008024A3434C69234303608B68C3620B6864
:1019F0008362904205D0084B984202D0074B984230
:101A000001D10B6903630123436110BD002C014028
:101A10000004004000200040004401400048014014
:101A2000FFFCFFFF70B504000120002C14D025003E
:101A30003D352B78DBB2002B05D122003C321370F0
:101A4000200001F087FD022320682B70211DFFF785
:101A5000A9FF012300202B7070BD000030B5846801
:101A6000034D0A431B022C4013432343836030BDC4
:101A7000FF00FFFFF8B5050002233C352A7804007B
:101A80001800012A19D02600012720683D362F7042
:101A9000337083684F4A134083600B68402B00D13A
:101AA0006FE016D8102B00D187E007D8002B00D1AB
:101AB0007DE00123002033702870F8BD202B00D179
:101AC00081E0302BF5D17022836893431A003723CD
:101AD00055E0702B33D01BD8502B3BD0602BE8D176
:101AE00010244B68CA68016A3B4FA14301628469B4
:101AF00012033C402243A024016A82617022A14368
:101B00001B010B430362836893431A00672336E08B
:101B10008022520193420DD0802292019342C8D17B
:101B2000CB684A688968FFF799FF80232268DB0148
:101B300091680CE00722836893438360B9E7CB6820
:101B40004A688968FFF78AFF7721226893680B4308
:101B50009360AEE74A68CB68016A046A1B01BC4324
:101B6000F02704628469BC4323430A24A1430A4347
:101B7000836102627022836893431A0057231343E0
:101B8000DBE74A68CB68016A046A1B01BC43F027A3
:101B900004628469BC4323430A24A1430A4383614A
:101BA00002627022836893431A004723E7E770229A
:101BB000836893431A000723E1E770228368934305
:101BC0001A001723DBE77022836893431A00272348
:101BD000D5E7C0468800FFFFFF0FFFFF30B50400C8
:101BE0003C34227803000220012A17D01D001B6814
:101BF0003D3528705A686E3082435A605A680868CA
:101C00004968024380205A609A6882439A609A68C1
:101C100000200A439A6001232B70207030BD70476A
:101C2000704700000123F0B55B4287B01F4E05AF3F
:101C30000293033301930097013B0F22652130008B
:101C4000FFF79EF9802313257A785B426D44134396
:101C50002B70012301245B42029301942300009521
:101C6000102264213000FFF7D1F804233A78642170
:101C700013432B7001235B420293019423000095D0
:101C80000F223000FFF7C2F87C233A785B421343FF
:101C90002B7001235B4202930194009523000F22D5
:101CA00064213000FFF7B2F807B0F0BDC400002097
:101CB000012330B55B4287B004AD029308330400C2
:101CC00001930022063B652100951C48FFF758F957
:101CD00006222B785242190951435B1823706B7806
:101CE000190951435B186370AB7859B200291FDAA8
:101CF0000221A1707D310B4019094A439B18E37002
:101D00000623EA785B4211095943521822712A7955
:101D100011095943521862716A79110959435218CD
:101D2000A271AA7911094B43D318E37107B030BDF2
:101D30009906C90FA1701F21DDE7C046C40000202D
:101D4000F0B5060089B0FFF76DFF37780A2138003B
:101D50000625FEF7D9F9684306AC3F182770777857
:101D60000A213800FEF7D0F968433F186770F7780A
:101D70000A213800FEF7C8F968433F18FBB23779EB
:101D80000A2138000593FEF7BFF968433F18E77052
:101D900077790A213800FEF7B7F968433F182771B1
:101DA000B7790A213800FEF7AFF968433F18677129
:101DB000F7790A213800FEF7A7F94543B0787D1975
:101DC000A571022811D1059B8238184301235B427B
:101DD000A0700293083301930094063B0022642113
:101DE0000448FFF713F809B0F0BD059B4001034319
:101DF0001800EBE7C4000020F0B50127022687B0E9
:101E0000FFF710FF0F4D05AC7F420297019600943B
:101E10000123102265212800FFF7B2F810222123A8
:101E20002178280091430B4323700F2361780B43E3
:101E3000637064210297019600940123FEF7E6FF88
:101E400007B0F0BDC4000020F0B5012787B0050041
:101E5000FFF7E8FE0223114E05AC7F420193029783
:101E6000DB190094102265213000FFF789F8102259
:101E700021232178300091430B430F212370637895
:101E80008B431D43022365705531019302970094E3
:101E9000DB19FEF7BBFF07B0F0BDC046C400002051
:101EA0007FB504000D00160045280DD8FFF7BAFED7
:101EB000012322005B4202932C32019600950233EB
:101EC00064210248FEF7A2FF7FBDC046C400002087
:101ED0001FB545280BD801232C305B420293019299
:101EE00000910200023365210248FFF749F805B06E
:101EF00000BDC046C4000020002800D170470A235E
:101F0000C046013B002BFBD10138F5E770B501233A
:101F10000225044C2800A361A561FFF7EDFFA5622F
:101F200070BDC04600140048F8B50700082401261B
:101F30000A4D0223AE6237420DD0AB610320013C53
:101F4000FFF7DAFFE4B2AE6103207F08FFF7D4FFAA
:101F5000002CEDD1F8BDAB62F0E7C046001400489C
:101F600070B50125054C0520A562FFF7C5FFA561E9
:101F70000220FFF7C1FFA56270BDC04600140048F3
:101F800070B501260225074C0220A662FFF7B4FFB8
:101F90002800A562FFF7B0FFA6612800FFF7ACFF9D
:101FA000A56170BD0014004810B50400793CFFF72E
:101FB000ADFFE0B2FFF7B8FFFFF7D2FFFFF7E0FF9A
:101FC00010BD10B50820FFF7EFFF10BDF0B50D00F4
:101FD00006260A2787B0019003920293741EE4B28A
:101FE00023000121013BDBB2FF2B4DD12800FEF77E
:101FF0008BF8002801D1261EF0D10024E7B2BE42A2
:1020000002D8029B002B41D00A212800FEF702F9DA
:10201000214B04AA5B5C1355039BBB4206D1802273
:1020200004ABE35C5242134304AAA35428000A21E0
:10203000FEF76AF801340500062CDFD1FFF766FFD2
:102040004020FFF771FFFFF78BFFFFF799FFFFF7C6
:102050005DFFC020FFF768FF0024FFF781FF019AB2
:10206000E3B20020934204D8019B04A962425B18AA
:10207000985C0134FFF758FFFFF772FF062CEED192
:10208000FFF77EFF07B0F0BD7943ABE76A46127AEF
:1020900004AB1A55C0E7C0461937000870B50400F4
:1020A0000D00FFF733FF4420FFF73EFFFFF758FF17
:1020B000FFF766FFFFF72AFF20004038C0B2FFF7A6
:1020C00033FFFFF74DFF2800FFF72EFFFFF748FF14
:1020D000FFF756FF70BD00002D39C9B210B50023BF
:1020E000482901D8054B5B5C59B2002A01D08022F7
:1020F00052421143C9B2FFF7D1FF10BDD0360008DC
:1021000030B585B00C22002101A801F0BCFA0422F0
:102110001A4C1B4B6261BC32A262802200252360F4
:102120000123D20020006560A560E5602361A56100
:10213000E56123626562E26223636363FEF7ECF8A4
:10214000A84201D001F016F980235B010293072316
:1021500001A9200001950393FEF71CFA002801D085
:1021600001F008F9012301A920000193FEF712FAFA
:10217000002801D001F0FEF805B030BD7800002045
:102180000024014070B5050088B01422002103A886
:1021900001F079FA1C4B2A689A4232D180268021BC
:1021A0001A4BB6009A69890232439A619A69902063
:1021B00032400192019A5A69C0050A435A615B692B
:1021C0000B400293029B032303A903930493FEF79E
:1021D000B9FB80220E4C0F4BE2608022120123607B
:1021E00062610023202220006360A3602661A26157
:1021F000E361FEF7EDFA002801D001F0BBF8EC63D3
:10220000656208B070BDC046002401400010024065
:10221000340000200800024007B50120084A516937
:1022200001435161536900220340019311000830BA
:10223000019BFEF779FA0920FEF7A6FA07BDC04612
:1022400000100240F0B589B01422002103A801F06B
:102250001AFA8020304BC003596990260143596116
:102260005A692E4F024080200092009A59698002DC
:102270000143596180215A69C90202400192019AC1
:102280005A69F6050A435A615B6938000B400293AC
:1022900001220321029BFEF70BFC012230004021AA
:1022A000FEF706FC032300240125039303A90E3344
:1022B0003800049305940695FEF744FB0C23039322
:1022C000174B03A9300004930595FEF73BFB402311
:1022D00003A930000393049505940694FEF732FB9E
:1022E000022303930F4B03A90F4804930595FEF7B0
:1022F00029FB220021000520FEF716FA0520FEF733
:1023000043FA220021000620FEF70EFA0620FEF70F
:102310003BFA09B0F0BDC04600100240001400486E
:1023200000003110000021100004004810B5134BCC
:10233000134C01222360134B200063600023E260F2
:10234000A36023616361A361E3612362FEF708FD7B
:10235000002801D001F00EF800212000FEF7D0FE89
:10236000002801D001F006F800212000FEF7EEFE63
:10237000002801D000F0FEFF10BDC0460054004010
:10238000C40000200B02000010B5040088B0142225
:10239000002103A801F077F9144B22689A4222D158
:1023A0008021134C8902626990200A43626163694B
:1023B000C0050B400193019BC023DB000393122354
:1023C0000493113B05930233069303A9013307934A
:1023D000FEF7B8FA8021E26989030A43E261E36902
:1023E0000B400293029B08B010BDC0460054004051
:1023F000001002401FB5FA236A4613705370144B45
:1024000069461B7800209370124B1B78D370124BD7
:102410001B781371114B1B785371114B1B789371FF
:10242000104B1B78D371104B1B7813720F4B1B781A
:1024300053720F4B1B7893720E4B1B78D3720E4B5B
:102440001B7813730D22FFF72BFD05B000BDC046AE
:10245000270000202400002025000020100100207B
:1024600038010020410100201801002069010020EE
:102470002B00002011010020680100200023022110
:102480000D4A13700D4A13700D4A13700D4A1170E6
:102490000D4A083111700D4A0A3113700C4A083385
:1024A00013700C4A11700C4A13700C4A13700122FD
:1024B0000B4B1A707047C0462700002024000020F4
:1024C00025000020100100203801002041010020DB
:1024D00018010020690100202B00002011010020BC
:1024E00068010020194B70B51B78002B2AD0184CBE
:1024F0006378002B26D1174DE3782A789A4221D0B1
:10250000154A1278002A07D0144A1278002A03D1FB
:10251000134A12789A4215D0124A1178124A127848
:10252000914210D88B420BD3934209D8FDF7A2FEFB
:102530000E4B0022186090204021C005FEF7B8FA2B
:10254000E3782B7070BD8B42EED3EFE741010020A2
:102550004B0100204A010020270000202500002018
:10256000240000201801002069010020140100202F
:10257000012310B5034A04481370044A1370FFF78F
:1025800049F910BD290000206C010020280000201E
:10259000902070B51B4C40212368C0050133236097
:1025A000FEF780FA051E0ED12368322B0AD990203F
:1025B00001224021C005FEF77BFA134A256013680B
:1025C0000133136070BD104D2B68032B0BD82368AB
:1025D000322BF7D9902000224021C005FEF768FA7F
:1025E00000232360EEE7FA2322685B009A42E9D9D0
:1025F000902000224021C005FEF75AFA00232360F4
:102600002B60DFE758010020340100200022064B38
:1026100010B506481A70FFF707F9902001224021F3
:10262000C005FEF745FA10BD290000206C0100200E
:1026300070B5144C144DE2782B789A420ED1134B9E
:1026400062781B789A4209D1114B1B78002B05D177
:10265000104B1B78002B01D0FFF78AFFE2782B7814
:102660009A4204D1094B62781B789A4208D00A4BEF
:102670001B78002B01D0FFF7C9FF0022044B1A7012
:1026800070BDC0464B010020240000202500002022
:1026900028000020270000202900002010B5144841
:1026A000144B02785B681449072A0DD8541C520059
:1026B00004708B52002211495400645AD0B2A342D4
:1026C0000ED80F4B187010BD00220B8213008C180F
:1026D0006088023220801B18102AF8D1DB08E9E755
:1026E00001327E2AE8D10022054B1A70EBE7C04682
:1026F0002D00002060010020200100202437000868
:102700000100002070B5354C2000FFF7D1FA0822F7
:102710002100334800F0AEFF324B1D78002D13D15D
:102720006422E17863785143C9182F4B623A1B78D1
:10273000002B00D1FD3201230320FFF747FCFFF7F8
:1027400077FFFFF7CFFE70BD012D1FD100222021A2
:102750001000FFF7C1FC2A0020212800FFF7BCFC75
:1027600020780A21FDF7D0FC010030310022C9B2E7
:102770000220FFF7B1FC20780A21FDF74BFD002273
:102780003031C9B20320FFF7A7FCD8E7022DD6D11C
:10279000FFF784FF154C2378632B01D96323237043
:1027A000002220211000FFF797FC20780A21FDF776
:1027B000ABFC010030310022C9B20120FFF78CFCD4
:1027C00020780A21FDF726FD3031C9B2002202200F
:1027D000FFF782FC00224321D4E7C0464B010020D2
:1027E00042010020260000204001002001000020BE
:1027F000F8B5A54B1B78032B36D1A44BA44C1B7802
:10280000002B2ED1E5780A212800FDF77DFC303021
:10281000C6B20A212800FDF7FDFC3031CFB2647842
:102820000A212000FDF770FC3030C5B20A212000DB
:10283000FDF7F0FC3031CCB2002231001000FFF780
:102840004BFC012239001000FFF746FC2900002252
:102850000220FFF741FC002221000320FFF73CFC8F
:10286000F8BD20263700DAE7042B14D1884C0A2162
:10287000E5782800FDF748FC3030C6B20A21280070
:10288000FDF7C8FC814B30311B78CFB2002BC6D08E
:1028900020242500D0E7052B0CD17C4B1B78002B86
:1028A00000D0C5E07B4B6E241B78002B00D1462462
:1028B0006F25BFE0062B17D1744B1B78002B10D16E
:1028C000754B0A211C782000FDF71EFC3030C6B283
:1028D0000A212000FDF79EFC3031CFB26F4B1C78EF
:1028E0009EE720263700F9E7072B12D16A4B0A2111
:1028F0001C782000FDF708FC3030C6B20A21200009
:10290000FDF788FC614B30311B78CFB2002BBFD173
:10291000E4E7082B15D15D4B1B78002B00D08CE031
:102920005F4B0A211C782000FDF7EEFB3030C5B26A
:102930000A212000FDF76EFC3031CCB2532754261B
:102940007AE7092B13D1514B1B78002B78D1554BCB
:102950000A211C782000FDF7D7FB3030C5B20A21D0
:102960002000FDF757FC3031CCB24827E7E70A2BAF
:102970000BD14D4B1C78002C65D0444B1B78002BA1
:1029800066D13034E4B230255FE00B2B09D13F4BE8
:102990001B78002B5FD1454B30251C783034E4B2D6
:1029A0005BE00C2B09D1394B1B78002B57D1404BE6
:1029B00030251C783034E4B253E00D2B0CD1334B6E
:1029C0001B78002B4FD13B4B46241B78002B00D0AB
:1029D0006E246F252F0049E00E2B13D12B4B1B7853
:1029E000002B45D1344B0A211C782000FDF78CFBCD
:1029F0003030C5B20A212000FDF70CFC3031CCB2DA
:102A0000532733E00F2B36D1204B1B78002B37D1C7
:102A10002A4B0A211C782000FDF776FB3030C5B226
:102A20000A212000FDF7F6FB3031CCB265271DE00E
:102A3000202425004C274126FEE6202425007DE7A2
:102A40002024250091E75524412572276226F3E6CC
:102A500020242500F9E7202425003127F6E720244B
:102A600025003227F2E720246F2725007226E3E6AF
:102A700020242500C4E70024250027002600DBE6EB
:102A800020242500D2E7C046260000204001002077
:102A90004201002027000020240000202500002003
:102AA00010010020380100202B000020110100201F
:102AB0006801002041010020180100206901002068
:102AC0004F4B70B51978002902D0FFF79FFD70BDFC
:102AD0004C4B02201A78140084430AD103221A7046
:102AE000494BFC321A70FFF783FE0920FFF7ACF95F
:102AF000EDE7012A06D145480170FFF721F9FFF7FC
:102B000001FEE4E7032A01D1013210E0042A06D1D4
:102B100001321A703C4B1970FFF76AFED7E7052A9D
:102B200009D13B4A11780622002900D102321A70DD
:102B3000FF22354B5AE0062AE6D0072AE8D0082AB9
:102B400009D1344A1278002A03D009221A700022CF
:102B5000EFE70A22FAE7092A01D10132F6E70A2A49
:102B600007D12D4A1278002A01D10B32EEE70D224F
:102B7000ECE70B2A09D101321A700022224B1A709D
:102B8000264B1878FFF710FAC6E70C2A0BD1002461
:102B900001321A701C4B1C70214B1878FFF704FA95
:102BA000204B1C70B8E70D2A22D10021164A117063
:102BB0001D4A12788A4218D11C4D1A702800FFF75E
:102BC00077F8124C2B7820002370FFF7B9F8184BD8
:102BD000E2781A70FFF70EFCFFF794FDFFF70CF98F
:102BE000FDF748FB134B186071E70E221A7093E74C
:102BF0000E2AB2D00F2A00D069E70022DCE7C046D7
:102C00002900002026000020400100204201002071
:102C100027000020100100202B0000206801002068
:102C20001101002000000020410100204B01002084
:102C30004A0100205C0100200A4B10B519780029D8
:102C400002D0FFF7E3FC10BD074A1378033B0C2BBF
:102C5000F9D81170FFF756FDFDF70CFB034B186018
:102C6000F1E7C04629000020260000205C0100207A
:102C7000554B10B51A78002A02D0FFF7C7FC10BDDB
:102C8000524902200B781C00844304D101230B70AD
:102C9000FFF738FDF3E7012B07D10A70FFF732FD8C
:102CA000FDF7E8FA4A4B1860E9E7032B0AD14949D6
:102CB000CB780133DBB2172B02D8CB70002214E0A3
:102CC000CA70FBE7042B09D142494B780133DBB2D0
:102CD0003B2B01D84B70F1E74A70EFE7052B07D18A
:102CE0003D49043B087843400B703C4B1A7051E05F
:102CF000062B07D13A490B780133DBB2172B09D8E1
:102D00000B70DBE7072B07D136490B780133DBB2B9
:102D10003B2BF5D90A70D1E7082B0CD1324A137836
:102D20000133DBB213700F2BC8D9304B1B785942DB
:102D30004B411370C2E7092B08D12C4A1378013399
:102D4000DBB213701E2BB9D9274BEFE70A2B0FD13B
:102D5000274A13780133DBB2082B07D81370107899
:102D6000002800D10130FFF71FF9A7E70023F5E79E
:102D7000204A0B2B02D00C2B11D11F4A13780133A0
:102D8000DBB2082B09D800211370144B197010788E
:102D9000FFF70AF9FFF72CFD71E70123F3E70D2B8D
:102DA00004D1164A0C3B11784B40C2E7144A0E2B53
:102DB00003D00F2B00D062E7124A13780133DBB245
:102DC000172BB6D90023B4E72900002026000020E5
:102DD0005C0100204201002027000020400100206B
:102DE00024000020250000201001002038010020D0
:102DF0002B0000201101002068010020410100206B
:102E0000180100206901002001222A4B10B51A7018
:102E1000294B1B78032B0ED1284AD3780133DBB220
:102E2000172B06D8D3700022254B1A70FFF7E0FC51
:102E300010BD0023F6E7042B09D1204A5378013353
:102E4000DBB23B2B01D85370EDE70023FBE71D4AB3
:102E5000062B28D0072B07D11B4A13780133DBB28E
:102E60003B2B25D81370DEE7082B0BD1174A1378BC
:102E70000133DBB213700F2BD5D9154B1B78594298
:102E80004B41EFE7092B08D1114A13780133DBB22C
:102E900013701E2BC7D90D4BF0E70E4A0E2B02D034
:102EA0000F2BC5D10C4A13780133DBB2172BD9D9BC
:102EB0000023D7E72C00002026000020420100203C
:102EC00040010020240000202500002010010020E7
:102ED00038010020180100206901002010B5FDF71D
:102EE000C9F9014B186010BD1C01002010B5FDF799
:102EF000C1F9084B084C1B68984204D2FFF7B8FE92
:102F00000023237010BDC01A3228F9D92378002B72
:102F1000F6D1F3E71C0100202C00002010B5FDF7CE
:102F2000A9F9014B186010BD3C01002010B5FDF758
:102F3000A1F9094B1B68984202D2FFF7C1FD10BDF1
:102F4000C01AC8239B00984202D9FFF775FEF6E726
:102F50003228F4D9F1E7C0463C01002010B5102416
:102F600094B03022002108A800F08DFB220000213F
:102F7000684600F088FB2200002104A800F083FBD3
:102F800012230893113B0B930D9380230C940E9402
:102F90001B030E3C08A810941293FEF7FBF8019453
:102FA0000024072321006846009302940394FEF74F
:102FB00005FB202304A804930794FEF79BFB14B0A1
:102FC00010BD0000F0B587B0FDF73CF9FFF7C6FF74
:102FD000FFF738F9FFF720F9FFF7A8F9FFF790F8A6
:102FE00000F09CFA00F03EFA00F07AFA0D2202A9F5
:102FF0000020FEF76DFF02AB1B78894C894E8A4F8B
:103000008A4DFA2B00D199E002AB5B78FA2B00D104
:1030100094E00F23E3710E3B0222A37163712371CD
:1030200000232000E3706370A2702370FEF788FE17
:10303000FFF724FAFFF7DEF932780123172A05D8C3
:103040007B4B1A783B2393429B415B423A78172A89
:1030500000D9A1E0774A1278172A00D99CE02A7893
:10306000082A0BD8744A1278013A072A06D8734AFC
:103070001278013A072A01D8002B03D0FFF7FEF996
:10308000FFF7B8F9FEF79DFF2D78002D00D185E000
:103090002800FEF789FF6A4D90272800FDF7F0FA17
:1030A000684902222800FDF7DDF96748FEF7A6FB14
:1030B0006648FEF7AFFB2000FEF7FAFDE278644BAE
:1030C00000241A70FEF798FEFDF7D4F80122614D36
:1030D000614B28601A70FF0540213800FDF7E2FCC3
:1030E000002813D15D4B1B78002B0FD1FDF7C2F8E0
:1030F0005B4B04001B68984203D35A4AC31A93429D
:1031000004D9012240213800FDF7D2FC564B574E1E
:103110001B78002B5FD03378002B45D1FDF7AAF840
:103120002B680400984207D3FA21514A890012788B
:10313000C31A4A43934251D32C604FE002AB9B78B1
:103140005A1E93414B4A137002ABDB78337002ABCB
:103150001A79374B1A7002AB5B79434A137002AB92
:103160009A79434B1A7002ABDB795A1E9341424A5B
:10317000137002AB1B7A3B7002AB5A7A2D4B1A705C
:1031800002AB9B7A2B7002ABDA7A2B4B1A7002AB34
:103190001A7B2A4B1A704FE7012360E70820FEF7DD
:1031A00003FF364B1D7076E7022B17D1304B1B788F
:1031B000002B13D0FDF75EF82B680400984207D36C
:1031C000FA21294A89001278C31A4A43934205D347
:1031D00000233370B0E73278022AFAD00821380091
:1031E000FDF760FC002800D076E73378033B0C2B1A
:1031F00000D971E7FDF73EF8C822214B01901B680A
:103200009200C31A934200D866E71E4E3268831AB2
:10321000FA2B00D860E7FFF7F7FD019B33605BE70F
:103220004B01002024000020180100202B0000206A
:103230002500002069010020110100206801002004
:103240007800002060010020AC010020EC0100208B
:103250004A0100205C0100202A00002029000020F3
:1032600014010020E70300001001002026000020C8
:10327000380100202700002041010020000000202C
:103280001C0100205401002010B50100022814D1B7
:10329000184B1B78002B09D0174B1B78022B06D834
:1032A000FFF730FA154A1378DB43137010BD033B68
:1032B0000C2BF7D8FFF79CFAF4E704280BD19020E9
:1032C000C005FDF7EFFB002802D1FFF727FEEDE771
:1032D000FFF72CFEEAE70828E8D19020C005FDF7AB
:1032E000E1FB002802D1FFF7F9FDDFE7FFF7FEFD64
:1032F000DCE7C0462A000020260000204001002014
:103300000368144A10B5934202D1FFF741F910BD8A
:10331000114A9342FBD1114B19780029F7D1104B78
:10332000104A187800280CD0AF20126800018242A1
:10333000EDD919700C4B18780028E8D0FEF734FE50
:10334000E5E70A4912688A42E1D801221A70084B5F
:10335000F1E7C04600480140004401402B00002036
:10336000000000206001002011010020FB08000087
:10337000680100207047000001200A4B82B0996963
:103380000143996180219A69490502400092009A9F
:10339000DA690A43DA61DB690B400193019B02B0F1
:1033A0007047C046001002407047FEE77047704704
:1033B00010B5FCF757FF10BD10B50220FDF77EFBDE
:1033C00010BD10B50420FDF779FB0820FDF776FB52
:1033D00010BD000010B50248FDF76BFA10BDC046E5
:1033E0003400002010B50248FEF738FA10BDC04680
:1033F000EC01002010B50248FEF730FA10BDC046BF
:103400006C0100200121114B11481A680A431A600F
:103410005A6802405A601A680E4802401A601A68D8
:103420000D4802401A605A680C4802400F205A604A
:10343000DA6A8243DA621A6B094802401A635A6BED
:103440008A435A6300229A607047C04600100240C7
:103450000CB8FF08FFFFF6FEFFFFFBFFFFFFC0FFFA
:10346000ECFEFFFF10B586B01022002102A800F08C
:103470000AF908220021684600F005F9154C164BA0
:10348000164A23600F23636000232000A360E260DC
:103490002361A361FEF7C6FA002801D0FFF76AFF97
:1034A000802302A95B0120000293FEF7E3FA0028C3
:1034B00001D0FFF75FFF202300930023694620001F
:1034C0000193FEF78BFB002801D0FFF753FF06B0F6
:1034D00010BDC046AC010020000400400F270000D2
:1034E0000A480B4B10B503600A4B0B4A436000239C
:1034F0008360036143618033C2608361FEF792FAA7
:10350000002801D0FFF736FF10BDC046EC010020B7
:10351000004401403F0600000F2700000A480B4B03
:1035200010B503600F2343600023094A83600361E1
:1035300043618033C2608361FEF774FA002801D0D2
:10354000FFF718FF10BDC0466C0100200048014085
:10355000E70300001FB503681B4A93420AD102200B
:103560001A4AD1690143D161D36903400193019B98
:1035700005B000BD164A934212D18020134A800242
:1035800091690143916193690022034002931520E0
:103590001100029BFDF7C8F81520FDF7F5F8E7E7E5
:1035A0000C4A9342E4D18020084AC0029169014349
:1035B0009161936900220340039316201100039B3D
:1035C000FDF7B2F81620E8E70004004000100240C2
:1035D00000440140004801400D4885460D480E4911
:1035E0000E4A002302E0D458C4500433C4188C425D
:1035F000F9D30B4A0B4C002301E013600432A242C2
:10360000FBD3FFF7FFFE00F011F8FFF7DBFCFEE74E
:1036100000100020000000200800002038380008BA
:10362000080000202C020020FEE7000070B50026F4
:103630000C4D0D4C641BA410A64209D1002600F0CD
:103640002BF80A4D0A4C641BA410A64205D170BD8C
:10365000B300EB5898470136EEE7B300EB589847B4
:103660000136F2E7303800083038000830380008FA
:1036700034380008002310B59A4200D110BDCC5C4C
:10368000C4540133F8E703008218934200D1704715
:1036900019700133F9E70000F8B5C046F8BC08BC62
:1036A0009E467047F8B5C046F8BC08BC9E467047B9
:1036B00002030405060708090A0B0C0D0E0F101073
:1036C0000102030405060708090A0B0C0D0E0F1072
:1036D0004000003F065B4F666D7D077F6F00000076
:1036E00000000000777C395E79710076301E00386A
:1036F00000545C7300506D443E0000000000000068
:1037000000000800777C585E79710074101E003844
:1037100000545C7300506D441C3F065B4F666D7D2A
:10372000077F6F001E04430468048D04B304DA04A9
:10373000000528054F0577059F05C705F005180604
:1037400041066A069306BC06E5060D0736075F07C5
:103750008707B007D807000827084E0875089C0897
:10376000C208E8080E09330957097B099F09C209F5
:10377000E509070A290A4A0A6B0A8B0AAA0AC90A32
:10378000E70A050B220B3F0B5B0B770B920BAC0B85
:10379000C60BE00BF80B110C290C400C560C6D0CF1
:1037A000820C980CAC0CC00CD40CE70CFA0C0D0D70
:1037B0001F0D300D410D520D620D720D810D900DDA
:1037C0009F0DAD0DBB0DC90DD60DE30DF00DFC0D1C
:1037D000080E130E1F0E2A0E350E3F0E490E530E05
:1037E0005D0E670E700E790E820E8A0E920E9B0E83
:1037F000A30EAA0EB20EB90EC00EC70ECE0ED50E77
:10380000DB0EE10EE70EED0EF30EF90EFF0E040FC8
:10381000090F0E0F130F180F1D0F220F260F2B0F5E
:103820000000000000000000010203040607080970
:04383000E9000008A3
:04383400C1000008C7
:083838000119000000127A00E2
:04000005080035D9E1
:00000001FF
